{
  "_format": "hh-sol-artifact-1",
  "contractName": "NFTMarketplace",
  "sourceName": "contracts/NFTMarketplace.sol",
  "abi": [
    {
      "inputs": [],
      "stateMutability": "nonpayable",
      "type": "constructor"
    },
    {
      "anonymous": false,
      "inputs": [
        {
          "indexed": true,
          "internalType": "address",
          "name": "owner",
          "type": "address"
        },
        {
          "indexed": true,
          "internalType": "address",
          "name": "approved",
          "type": "address"
        },
        {
          "indexed": true,
          "internalType": "uint256",
          "name": "tokenId",
          "type": "uint256"
        }
      ],
      "name": "Approval",
      "type": "event"
    },
    {
      "anonymous": false,
      "inputs": [
        {
          "indexed": true,
          "internalType": "address",
          "name": "owner",
          "type": "address"
        },
        {
          "indexed": true,
          "internalType": "address",
          "name": "operator",
          "type": "address"
        },
        {
          "indexed": false,
          "internalType": "bool",
          "name": "approved",
          "type": "bool"
        }
      ],
      "name": "ApprovalForAll",
      "type": "event"
    },
    {
      "anonymous": false,
      "inputs": [
        {
          "indexed": false,
          "internalType": "uint256",
          "name": "_fromTokenId",
          "type": "uint256"
        },
        {
          "indexed": false,
          "internalType": "uint256",
          "name": "_toTokenId",
          "type": "uint256"
        }
      ],
      "name": "BatchMetadataUpdate",
      "type": "event"
    },
    {
      "anonymous": false,
      "inputs": [
        {
          "indexed": false,
          "internalType": "uint256",
          "name": "_tokenId",
          "type": "uint256"
        }
      ],
      "name": "MetadataUpdate",
      "type": "event"
    },
    {
      "anonymous": false,
      "inputs": [
        {
          "indexed": true,
          "internalType": "address",
          "name": "from",
          "type": "address"
        },
        {
          "indexed": true,
          "internalType": "address",
          "name": "to",
          "type": "address"
        },
        {
          "indexed": true,
          "internalType": "uint256",
          "name": "tokenId",
          "type": "uint256"
        }
      ],
      "name": "Transfer",
      "type": "event"
    },
    {
      "anonymous": false,
      "inputs": [
        {
          "indexed": true,
          "internalType": "uint256",
          "name": "tokenId",
          "type": "uint256"
        },
        {
          "indexed": false,
          "internalType": "address",
          "name": "seller",
          "type": "address"
        },
        {
          "indexed": false,
          "internalType": "address",
          "name": "owner",
          "type": "address"
        },
        {
          "indexed": false,
          "internalType": "uint256",
          "name": "price",
          "type": "uint256"
        },
        {
          "indexed": false,
          "internalType": "bool",
          "name": "sold",
          "type": "bool"
        }
      ],
      "name": "idMarketItemCreated",
      "type": "event"
    },
    {
      "inputs": [
        {
          "internalType": "address",
          "name": "to",
          "type": "address"
        },
        {
          "internalType": "uint256",
          "name": "tokenId",
          "type": "uint256"
        }
      ],
      "name": "approve",
      "outputs": [],
      "stateMutability": "nonpayable",
      "type": "function"
    },
    {
      "inputs": [
        {
          "internalType": "address",
          "name": "owner",
          "type": "address"
        }
      ],
      "name": "balanceOf",
      "outputs": [
        {
          "internalType": "uint256",
          "name": "",
          "type": "uint256"
        }
      ],
      "stateMutability": "view",
      "type": "function"
    },
    {
      "inputs": [
        {
          "internalType": "uint256",
          "name": "tokenId",
          "type": "uint256"
        }
      ],
      "name": "createMArketSale",
      "outputs": [],
      "stateMutability": "payable",
      "type": "function"
    },
    {
      "inputs": [
        {
          "internalType": "string",
          "name": "tokenURI",
          "type": "string"
        },
        {
          "internalType": "uint256",
          "name": "price",
          "type": "uint256"
        }
      ],
      "name": "createToken",
      "outputs": [
        {
          "internalType": "uint256",
          "name": "",
          "type": "uint256"
        }
      ],
      "stateMutability": "payable",
      "type": "function"
    },
    {
      "inputs": [],
      "name": "fetchItemsListed",
      "outputs": [
        {
          "components": [
            {
              "internalType": "uint256",
              "name": "tokenId",
              "type": "uint256"
            },
            {
              "internalType": "address payable",
              "name": "seller",
              "type": "address"
            },
            {
              "internalType": "address payable",
              "name": "owner",
              "type": "address"
            },
            {
              "internalType": "uint256",
              "name": "price",
              "type": "uint256"
            },
            {
              "internalType": "bool",
              "name": "sold",
              "type": "bool"
            }
          ],
          "internalType": "struct NFTMarketplace.MarketItem[]",
          "name": "",
          "type": "tuple[]"
        }
      ],
      "stateMutability": "view",
      "type": "function"
    },
    {
      "inputs": [],
      "name": "fetchMarketItem",
      "outputs": [
        {
          "components": [
            {
              "internalType": "uint256",
              "name": "tokenId",
              "type": "uint256"
            },
            {
              "internalType": "address payable",
              "name": "seller",
              "type": "address"
            },
            {
              "internalType": "address payable",
              "name": "owner",
              "type": "address"
            },
            {
              "internalType": "uint256",
              "name": "price",
              "type": "uint256"
            },
            {
              "internalType": "bool",
              "name": "sold",
              "type": "bool"
            }
          ],
          "internalType": "struct NFTMarketplace.MarketItem[]",
          "name": "",
          "type": "tuple[]"
        }
      ],
      "stateMutability": "view",
      "type": "function"
    },
    {
      "inputs": [],
      "name": "fetchMyNft",
      "outputs": [
        {
          "components": [
            {
              "internalType": "uint256",
              "name": "tokenId",
              "type": "uint256"
            },
            {
              "internalType": "address payable",
              "name": "seller",
              "type": "address"
            },
            {
              "internalType": "address payable",
              "name": "owner",
              "type": "address"
            },
            {
              "internalType": "uint256",
              "name": "price",
              "type": "uint256"
            },
            {
              "internalType": "bool",
              "name": "sold",
              "type": "bool"
            }
          ],
          "internalType": "struct NFTMarketplace.MarketItem[]",
          "name": "",
          "type": "tuple[]"
        }
      ],
      "stateMutability": "view",
      "type": "function"
    },
    {
      "inputs": [
        {
          "internalType": "uint256",
          "name": "tokenId",
          "type": "uint256"
        }
      ],
      "name": "getApproved",
      "outputs": [
        {
          "internalType": "address",
          "name": "",
          "type": "address"
        }
      ],
      "stateMutability": "view",
      "type": "function"
    },
    {
      "inputs": [],
      "name": "getListingPrice",
      "outputs": [
        {
          "internalType": "uint256",
          "name": "",
          "type": "uint256"
        }
      ],
      "stateMutability": "view",
      "type": "function"
    },
    {
      "inputs": [
        {
          "internalType": "address",
          "name": "owner",
          "type": "address"
        },
        {
          "internalType": "address",
          "name": "operator",
          "type": "address"
        }
      ],
      "name": "isApprovedForAll",
      "outputs": [
        {
          "internalType": "bool",
          "name": "",
          "type": "bool"
        }
      ],
      "stateMutability": "view",
      "type": "function"
    },
    {
      "inputs": [],
      "name": "name",
      "outputs": [
        {
          "internalType": "string",
          "name": "",
          "type": "string"
        }
      ],
      "stateMutability": "view",
      "type": "function"
    },
    {
      "inputs": [
        {
          "internalType": "uint256",
          "name": "tokenId",
          "type": "uint256"
        }
      ],
      "name": "ownerOf",
      "outputs": [
        {
          "internalType": "address",
          "name": "",
          "type": "address"
        }
      ],
      "stateMutability": "view",
      "type": "function"
    },
    {
      "inputs": [
        {
          "internalType": "uint256",
          "name": "tokenId",
          "type": "uint256"
        },
        {
          "internalType": "uint256",
          "name": "price",
          "type": "uint256"
        }
      ],
      "name": "reSellToken",
      "outputs": [],
      "stateMutability": "payable",
      "type": "function"
    },
    {
      "inputs": [
        {
          "internalType": "address",
          "name": "from",
          "type": "address"
        },
        {
          "internalType": "address",
          "name": "to",
          "type": "address"
        },
        {
          "internalType": "uint256",
          "name": "tokenId",
          "type": "uint256"
        }
      ],
      "name": "safeTransferFrom",
      "outputs": [],
      "stateMutability": "nonpayable",
      "type": "function"
    },
    {
      "inputs": [
        {
          "internalType": "address",
          "name": "from",
          "type": "address"
        },
        {
          "internalType": "address",
          "name": "to",
          "type": "address"
        },
        {
          "internalType": "uint256",
          "name": "tokenId",
          "type": "uint256"
        },
        {
          "internalType": "bytes",
          "name": "data",
          "type": "bytes"
        }
      ],
      "name": "safeTransferFrom",
      "outputs": [],
      "stateMutability": "nonpayable",
      "type": "function"
    },
    {
      "inputs": [
        {
          "internalType": "address",
          "name": "operator",
          "type": "address"
        },
        {
          "internalType": "bool",
          "name": "approved",
          "type": "bool"
        }
      ],
      "name": "setApprovalForAll",
      "outputs": [],
      "stateMutability": "nonpayable",
      "type": "function"
    },
    {
      "inputs": [
        {
          "internalType": "bytes4",
          "name": "interfaceId",
          "type": "bytes4"
        }
      ],
      "name": "supportsInterface",
      "outputs": [
        {
          "internalType": "bool",
          "name": "",
          "type": "bool"
        }
      ],
      "stateMutability": "view",
      "type": "function"
    },
    {
      "inputs": [],
      "name": "symbol",
      "outputs": [
        {
          "internalType": "string",
          "name": "",
          "type": "string"
        }
      ],
      "stateMutability": "view",
      "type": "function"
    },
    {
      "inputs": [
        {
          "internalType": "uint256",
          "name": "tokenId",
          "type": "uint256"
        }
      ],
      "name": "tokenURI",
      "outputs": [
        {
          "internalType": "string",
          "name": "",
          "type": "string"
        }
      ],
      "stateMutability": "view",
      "type": "function"
    },
    {
      "inputs": [
        {
          "internalType": "address",
          "name": "from",
          "type": "address"
        },
        {
          "internalType": "address",
          "name": "to",
          "type": "address"
        },
        {
          "internalType": "uint256",
          "name": "tokenId",
          "type": "uint256"
        }
      ],
      "name": "transferFrom",
      "outputs": [],
      "stateMutability": "nonpayable",
      "type": "function"
    },
    {
      "inputs": [
        {
          "internalType": "uint256",
          "name": "_listingPrice",
          "type": "uint256"
        }
      ],
      "name": "updateListingPrice",
      "outputs": [],
      "stateMutability": "payable",
      "type": "function"
    }
  ],
  "bytecode": "0x60806040526605543df729c0006009553480156200001c57600080fd5b506040518060400160405280601381526020017f4e4654204d657461766572736520546f6b656e000000000000000000000000008152506040518060400160405280600581526020017f4d594e46540000000000000000000000000000000000000000000000000000008152508160009080519060200190620000a1929190620000e9565b508060019080519060200190620000ba929190620000e9565b5050503373ffffffffffffffffffffffffffffffffffffffff16600a60009054906101000a90505050620001fe565b828054620000f790620001c8565b90600052602060002090601f0160209004810192826200011b576000855562000167565b82601f106200013657805160ff191683800117855562000167565b8280016001018555821562000167579182015b828111156200016657825182559160200191906001019062000149565b5b5090506200017691906200017a565b5090565b5b80821115620001955760008160009055506001016200017b565b5090565b7f4e487b7100000000000000000000000000000000000000000000000000000000600052602260045260246000fd5b60006002820490506001821680620001e157607f821691505b60208210811415620001f857620001f762000199565b5b50919050565b6141d7806200020e6000396000f3fe60806040526004361061012a5760003560e01c806372b3b620116100ab5780639f7699eb1161006f5780639f7699eb146103dd578063a22cb46514610408578063ae677aa314610431578063b88d4fde1461044d578063c87b56dd14610476578063e985e9c5146104b35761012a565b806372b3b6201461031f57806385535b251461034f5780638fafd0211461036b5780639467b0b81461039657806395d89b41146103b25761012a565b806323b872dd116100f257806323b872dd1461022857806342842e0e1461025157806345f8fa801461027a5780636352211e146102a557806370a08231146102e25761012a565b806301ffc9a71461012f57806306fdde031461016c578063081812fc14610197578063095ea7b3146101d457806312e85585146101fd575b600080fd5b34801561013b57600080fd5b5061015660048036038101906101519190612c5a565b6104f0565b6040516101639190612ca2565b60405180910390f35b34801561017857600080fd5b50610181610551565b60405161018e9190612d56565b60405180910390f35b3480156101a357600080fd5b506101be60048036038101906101b99190612dae565b6105e3565b6040516101cb9190612e1c565b60405180910390f35b3480156101e057600080fd5b506101fb60048036038101906101f69190612e63565b610629565b005b34801561020957600080fd5b50610212610741565b60405161021f9190612eb2565b60405180910390f35b34801561023457600080fd5b5061024f600480360381019061024a9190612ecd565b61074b565b005b34801561025d57600080fd5b5061027860048036038101906102739190612ecd565b6107ab565b005b34801561028657600080fd5b5061028f6107cb565b60405161029c9190613076565b60405180910390f35b3480156102b157600080fd5b506102cc60048036038101906102c79190612dae565b610ab7565b6040516102d99190612e1c565b60405180910390f35b3480156102ee57600080fd5b5061030960048036038101906103049190613098565b610b3e565b6040516103169190612eb2565b60405180910390f35b610339600480360381019061033491906131fa565b610bf6565b6040516103469190612eb2565b60405180910390f35b61036960048036038101906103649190613256565b610c38565b005b34801561037757600080fd5b50610380610e2d565b60405161038d9190613076565b60405180910390f35b6103b060048036038101906103ab9190612dae565b611095565b005b3480156103be57600080fd5b506103c76112cd565b6040516103d49190612d56565b60405180910390f35b3480156103e957600080fd5b506103f261135f565b6040516103ff9190613076565b60405180910390f35b34801561041457600080fd5b5061042f600480360381019061042a91906132c2565b61164b565b005b61044b60048036038101906104469190612dae565b611661565b005b34801561045957600080fd5b50610474600480360381019061046f91906133a3565b6116fb565b005b34801561048257600080fd5b5061049d60048036038101906104989190612dae565b61175d565b6040516104aa9190612d56565b60405180910390f35b3480156104bf57600080fd5b506104da60048036038101906104d59190613426565b611870565b6040516104e79190612ca2565b60405180910390f35b6000634906490660e01b7bffffffffffffffffffffffffffffffffffffffffffffffffffffffff1916827bffffffffffffffffffffffffffffffffffffffffffffffffffffffff1916148061054a575061054982611904565b5b9050919050565b60606000805461056090613495565b80601f016020809104026020016040519081016040528092919081815260200182805461058c90613495565b80156105d95780601f106105ae576101008083540402835291602001916105d9565b820191906000526020600020905b8154815290600101906020018083116105bc57829003601f168201915b5050505050905090565b60006105ee826119e6565b6004600083815260200190815260200160002060009054906101000a900473ffffffffffffffffffffffffffffffffffffffff169050919050565b600061063482610ab7565b90508073ffffffffffffffffffffffffffffffffffffffff168373ffffffffffffffffffffffffffffffffffffffff1614156106a5576040517f08c379a000000000000000000000000000000000000000000000000000000000815260040161069c90613539565b60405180910390fd5b8073ffffffffffffffffffffffffffffffffffffffff166106c4611a31565b73ffffffffffffffffffffffffffffffffffffffff1614806106f357506106f2816106ed611a31565b611870565b5b610732576040517f08c379a0000000000000000000000000000000000000000000000000000000008152600401610729906135cb565b60405180910390fd5b61073c8383611a39565b505050565b6000600954905090565b61075c610756611a31565b82611af2565b61079b576040517f08c379a00000000000000000000000000000000000000000000000000000000081526004016107929061365d565b60405180910390fd5b6107a6838383611b87565b505050565b6107c6838383604051806020016040528060008152506116fb565b505050565b606060006107d96007611e81565b905060008060005b83811015610881573373ffffffffffffffffffffffffffffffffffffffff16600b600060018461081191906136ac565b815260200190815260200160002060010160009054906101000a900473ffffffffffffffffffffffffffffffffffffffff1673ffffffffffffffffffffffffffffffffffffffff16141561086e57828061086a90613702565b9350505b808061087990613702565b9150506107e1565b5060008267ffffffffffffffff81111561089e5761089d6130cf565b5b6040519080825280602002602001820160405280156108d757816020015b6108c4612aee565b8152602001906001900390816108bc5790505b50905060005b84811015610aac573373ffffffffffffffffffffffffffffffffffffffff16600b600060018461090d91906136ac565b815260200190815260200160002060010160009054906101000a900473ffffffffffffffffffffffffffffffffffffffff1673ffffffffffffffffffffffffffffffffffffffff161415610a9957600060018261096a91906136ac565b90506000600b60008381526020019081526020016000209050806040518060a0016040529081600082015481526020016001820160009054906101000a900473ffffffffffffffffffffffffffffffffffffffff1673ffffffffffffffffffffffffffffffffffffffff1673ffffffffffffffffffffffffffffffffffffffff1681526020016002820160009054906101000a900473ffffffffffffffffffffffffffffffffffffffff1673ffffffffffffffffffffffffffffffffffffffff1673ffffffffffffffffffffffffffffffffffffffff168152602001600382015481526020016004820160009054906101000a900460ff161515151581525050848681518110610a7d57610a7c61374b565b5b60200260200101819052508480610a9390613702565b95505050505b8080610aa490613702565b9150506108dd565b508094505050505090565b600080610ac383611e8f565b9050600073ffffffffffffffffffffffffffffffffffffffff168173ffffffffffffffffffffffffffffffffffffffff161415610b35576040517f08c379a0000000000000000000000000000000000000000000000000000000008152600401610b2c906137c6565b60405180910390fd5b80915050919050565b60008073ffffffffffffffffffffffffffffffffffffffff168273ffffffffffffffffffffffffffffffffffffffff161415610baf576040517f08c379a0000000000000000000000000000000000000000000000000000000008152600401610ba690613858565b60405180910390fd5b600360008373ffffffffffffffffffffffffffffffffffffffff1673ffffffffffffffffffffffffffffffffffffffff168152602001908152602001600020549050919050565b6000610c026007611ecc565b6000610c0e6007611e81565b9050610c1a3382611ee2565b610c248185612100565b610c2e81846121ab565b8091505092915050565b3373ffffffffffffffffffffffffffffffffffffffff16600b600084815260200190815260200160002060020160009054906101000a900473ffffffffffffffffffffffffffffffffffffffff1673ffffffffffffffffffffffffffffffffffffffff1614610cdc576040517f08c379a0000000000000000000000000000000000000000000000000000000008152600401610cd3906138ea565b60405180910390fd5b6009543414610d20576040517f08c379a0000000000000000000000000000000000000000000000000000000008152600401610d179061397c565b60405180910390fd5b6000600b600084815260200190815260200160002060040160006101000a81548160ff02191690831515021790555080600b60008481526020019081526020016000206003018190555033600b600084815260200190815260200160002060010160006101000a81548173ffffffffffffffffffffffffffffffffffffffff021916908373ffffffffffffffffffffffffffffffffffffffff16021790555030600b600084815260200190815260200160002060020160006101000a81548173ffffffffffffffffffffffffffffffffffffffff021916908373ffffffffffffffffffffffffffffffffffffffff160217905550610e1e60086123ae565b610e29333084611b87565b5050565b60606000610e3b6007611e81565b90506000610e496008611e81565b610e536007611e81565b610e5d919061399c565b90506000808267ffffffffffffffff811115610e7c57610e7b6130cf565b5b604051908082528060200260200182016040528015610eb557816020015b610ea2612aee565b815260200190600190039081610e9a5790505b50905060005b8481101561108a573073ffffffffffffffffffffffffffffffffffffffff16600b6000600184610eeb91906136ac565b815260200190815260200160002060020160009054906101000a900473ffffffffffffffffffffffffffffffffffffffff1673ffffffffffffffffffffffffffffffffffffffff161415611077576000600182610f4891906136ac565b90506000600b60008381526020019081526020016000209050806040518060a0016040529081600082015481526020016001820160009054906101000a900473ffffffffffffffffffffffffffffffffffffffff1673ffffffffffffffffffffffffffffffffffffffff1673ffffffffffffffffffffffffffffffffffffffff1681526020016002820160009054906101000a900473ffffffffffffffffffffffffffffffffffffffff1673ffffffffffffffffffffffffffffffffffffffff1673ffffffffffffffffffffffffffffffffffffffff168152602001600382015481526020016004820160009054906101000a900460ff16151515158152505084868151811061105b5761105a61374b565b5b6020026020010181905250848061107190613702565b95505050505b808061108290613702565b915050610ebb565b508094505050505090565b6000600b60008381526020019081526020016000206003015490508034146110f2576040517f08c379a00000000000000000000000000000000000000000000000000000000081526004016110e990613a42565b60405180910390fd5b33600b600084815260200190815260200160002060020160006101000a81548173ffffffffffffffffffffffffffffffffffffffff021916908373ffffffffffffffffffffffffffffffffffffffff1602179055506001600b600084815260200190815260200160002060040160006101000a81548160ff0219169083151502179055506000600b600084815260200190815260200160002060020160006101000a81548173ffffffffffffffffffffffffffffffffffffffff021916908373ffffffffffffffffffffffffffffffffffffffff1602179055506111d66008611ecc565b6111e1303384611b87565b600a60009054906101000a900473ffffffffffffffffffffffffffffffffffffffff1673ffffffffffffffffffffffffffffffffffffffff166108fc6009549081150290604051600060405180830381858888f1935050505015801561124b573d6000803e3d6000fd5b50600b600083815260200190815260200160002060010160009054906101000a900473ffffffffffffffffffffffffffffffffffffffff1673ffffffffffffffffffffffffffffffffffffffff166108fc349081150290604051600060405180830381858888f193505050501580156112c8573d6000803e3d6000fd5b505050565b6060600180546112dc90613495565b80601f016020809104026020016040519081016040528092919081815260200182805461130890613495565b80156113555780601f1061132a57610100808354040283529160200191611355565b820191906000526020600020905b81548152906001019060200180831161133857829003601f168201915b5050505050905090565b6060600061136d6007611e81565b905060008060005b83811015611415573373ffffffffffffffffffffffffffffffffffffffff16600b60006001846113a591906136ac565b815260200190815260200160002060020160009054906101000a900473ffffffffffffffffffffffffffffffffffffffff1673ffffffffffffffffffffffffffffffffffffffff1614156114025782806113fe90613702565b9350505b808061140d90613702565b915050611375565b5060008267ffffffffffffffff811115611432576114316130cf565b5b60405190808252806020026020018201604052801561146b57816020015b611458612aee565b8152602001906001900390816114505790505b50905060005b84811015611640573373ffffffffffffffffffffffffffffffffffffffff16600b60006001846114a191906136ac565b815260200190815260200160002060020160009054906101000a900473ffffffffffffffffffffffffffffffffffffffff1673ffffffffffffffffffffffffffffffffffffffff16141561162d5760006001826114fe91906136ac565b90506000600b60008381526020019081526020016000209050806040518060a0016040529081600082015481526020016001820160009054906101000a900473ffffffffffffffffffffffffffffffffffffffff1673ffffffffffffffffffffffffffffffffffffffff1673ffffffffffffffffffffffffffffffffffffffff1681526020016002820160009054906101000a900473ffffffffffffffffffffffffffffffffffffffff1673ffffffffffffffffffffffffffffffffffffffff1673ffffffffffffffffffffffffffffffffffffffff168152602001600382015481526020016004820160009054906101000a900460ff1615151515815250508486815181106116115761161061374b565b5b6020026020010181905250848061162790613702565b95505050505b808061163890613702565b915050611471565b508094505050505090565b61165d611656611a31565b838361240a565b5050565b600a60009054906101000a900473ffffffffffffffffffffffffffffffffffffffff1673ffffffffffffffffffffffffffffffffffffffff163373ffffffffffffffffffffffffffffffffffffffff16146116f1576040517f08c379a00000000000000000000000000000000000000000000000000000000081526004016116e890613ad4565b60405180910390fd5b8060098190555050565b61170c611706611a31565b83611af2565b61174b576040517f08c379a00000000000000000000000000000000000000000000000000000000081526004016117429061365d565b60405180910390fd5b61175784848484612577565b50505050565b6060611768826119e6565b600060066000848152602001908152602001600020805461178890613495565b80601f01602080910402602001604051908101604052809291908181526020018280546117b490613495565b80156118015780601f106117d657610100808354040283529160200191611801565b820191906000526020600020905b8154815290600101906020018083116117e457829003601f168201915b5050505050905060006118126125d3565b905060008151141561182857819250505061186b565b60008251111561185d578082604051602001611845929190613b30565b6040516020818303038152906040529250505061186b565b611866846125ea565b925050505b919050565b6000600560008473ffffffffffffffffffffffffffffffffffffffff1673ffffffffffffffffffffffffffffffffffffffff16815260200190815260200160002060008373ffffffffffffffffffffffffffffffffffffffff1673ffffffffffffffffffffffffffffffffffffffff16815260200190815260200160002060009054906101000a900460ff16905092915050565b60007f80ac58cd000000000000000000000000000000000000000000000000000000007bffffffffffffffffffffffffffffffffffffffffffffffffffffffff1916827bffffffffffffffffffffffffffffffffffffffffffffffffffffffff191614806119cf57507f5b5e139f000000000000000000000000000000000000000000000000000000007bffffffffffffffffffffffffffffffffffffffffffffffffffffffff1916827bffffffffffffffffffffffffffffffffffffffffffffffffffffffff1916145b806119df57506119de82612652565b5b9050919050565b6119ef816126bc565b611a2e576040517f08c379a0000000000000000000000000000000000000000000000000000000008152600401611a25906137c6565b60405180910390fd5b50565b600033905090565b816004600083815260200190815260200160002060006101000a81548173ffffffffffffffffffffffffffffffffffffffff021916908373ffffffffffffffffffffffffffffffffffffffff160217905550808273ffffffffffffffffffffffffffffffffffffffff16611aac83610ab7565b73ffffffffffffffffffffffffffffffffffffffff167f8c5be1e5ebec7d5bd14f71427d1e84f3dd0314c0f7b2291e5b200ac8c7c3b92560405160405180910390a45050565b600080611afe83610ab7565b90508073ffffffffffffffffffffffffffffffffffffffff168473ffffffffffffffffffffffffffffffffffffffff161480611b405750611b3f8185611870565b5b80611b7e57508373ffffffffffffffffffffffffffffffffffffffff16611b66846105e3565b73ffffffffffffffffffffffffffffffffffffffff16145b91505092915050565b8273ffffffffffffffffffffffffffffffffffffffff16611ba782610ab7565b73ffffffffffffffffffffffffffffffffffffffff1614611bfd576040517f08c379a0000000000000000000000000000000000000000000000000000000008152600401611bf490613bc6565b60405180910390fd5b600073ffffffffffffffffffffffffffffffffffffffff168273ffffffffffffffffffffffffffffffffffffffff161415611c6d576040517f08c379a0000000000000000000000000000000000000000000000000000000008152600401611c6490613c58565b60405180910390fd5b611c7a83838360016126fd565b8273ffffffffffffffffffffffffffffffffffffffff16611c9a82610ab7565b73ffffffffffffffffffffffffffffffffffffffff1614611cf0576040517f08c379a0000000000000000000000000000000000000000000000000000000008152600401611ce790613bc6565b60405180910390fd5b6004600082815260200190815260200160002060006101000a81549073ffffffffffffffffffffffffffffffffffffffff02191690556001600360008573ffffffffffffffffffffffffffffffffffffffff1673ffffffffffffffffffffffffffffffffffffffff168152602001908152602001600020600082825403925050819055506001600360008473ffffffffffffffffffffffffffffffffffffffff1673ffffffffffffffffffffffffffffffffffffffff16815260200190815260200160002060008282540192505081905550816002600083815260200190815260200160002060006101000a81548173ffffffffffffffffffffffffffffffffffffffff021916908373ffffffffffffffffffffffffffffffffffffffff160217905550808273ffffffffffffffffffffffffffffffffffffffff168473ffffffffffffffffffffffffffffffffffffffff167fddf252ad1be2c89b69c2b068fc378daa952ba7f163c4a11628f55a4df523b3ef60405160405180910390a4611e7c8383836001612703565b505050565b600081600001549050919050565b60006002600083815260200190815260200160002060009054906101000a900473ffffffffffffffffffffffffffffffffffffffff169050919050565b6001816000016000828254019250508190555050565b600073ffffffffffffffffffffffffffffffffffffffff168273ffffffffffffffffffffffffffffffffffffffff161415611f52576040517f08c379a0000000000000000000000000000000000000000000000000000000008152600401611f4990613cc4565b60405180910390fd5b611f5b816126bc565b15611f9b576040517f08c379a0000000000000000000000000000000000000000000000000000000008152600401611f9290613d30565b60405180910390fd5b611fa96000838360016126fd565b611fb2816126bc565b15611ff2576040517f08c379a0000000000000000000000000000000000000000000000000000000008152600401611fe990613d30565b60405180910390fd5b6001600360008473ffffffffffffffffffffffffffffffffffffffff1673ffffffffffffffffffffffffffffffffffffffff16815260200190815260200160002060008282540192505081905550816002600083815260200190815260200160002060006101000a81548173ffffffffffffffffffffffffffffffffffffffff021916908373ffffffffffffffffffffffffffffffffffffffff160217905550808273ffffffffffffffffffffffffffffffffffffffff16600073ffffffffffffffffffffffffffffffffffffffff167fddf252ad1be2c89b69c2b068fc378daa952ba7f163c4a11628f55a4df523b3ef60405160405180910390a46120fc600083836001612703565b5050565b612109826126bc565b612148576040517f08c379a000000000000000000000000000000000000000000000000000000000815260040161213f90613dc2565b60405180910390fd5b8060066000848152602001908152602001600020908051906020019061216f929190612b4b565b507ff8e1a15aba9398e019f0b49df1a4fde98ee17ae345cb5f6b5e2c27f5033e8ce78260405161219f9190612eb2565b60405180910390a15050565b600081116121ee576040517f08c379a00000000000000000000000000000000000000000000000000000000081526004016121e590613e2e565b60405180910390fd5b6009543414612232576040517f08c379a000000000000000000000000000000000000000000000000000000000815260040161222990613ec0565b60405180910390fd5b6040518060a001604052808381526020013373ffffffffffffffffffffffffffffffffffffffff1681526020013073ffffffffffffffffffffffffffffffffffffffff16815260200182815260200160001515815250600b60008481526020019081526020016000206000820151816000015560208201518160010160006101000a81548173ffffffffffffffffffffffffffffffffffffffff021916908373ffffffffffffffffffffffffffffffffffffffff16021790555060408201518160020160006101000a81548173ffffffffffffffffffffffffffffffffffffffff021916908373ffffffffffffffffffffffffffffffffffffffff1602179055506060820151816003015560808201518160040160006101000a81548160ff02191690831515021790555090505061236b333084611b87565b817fdebdb32cb5230ab727c9c361b16fdb2015df225c10e6a3e7f60ecd5dc5be451633308460006040516123a29493929190613ee0565b60405180910390a25050565b600081600001549050600081116123fa576040517f08c379a00000000000000000000000000000000000000000000000000000000081526004016123f190613f71565b60405180910390fd5b6001810382600001819055505050565b8173ffffffffffffffffffffffffffffffffffffffff168373ffffffffffffffffffffffffffffffffffffffff161415612479576040517f08c379a000000000000000000000000000000000000000000000000000000000815260040161247090613fdd565b60405180910390fd5b80600560008573ffffffffffffffffffffffffffffffffffffffff1673ffffffffffffffffffffffffffffffffffffffff16815260200190815260200160002060008473ffffffffffffffffffffffffffffffffffffffff1673ffffffffffffffffffffffffffffffffffffffff16815260200190815260200160002060006101000a81548160ff0219169083151502179055508173ffffffffffffffffffffffffffffffffffffffff168373ffffffffffffffffffffffffffffffffffffffff167f17307eab39ab6107e8899845ad3d59bd9653f200f220920489ca2b5937696c318360405161256a9190612ca2565b60405180910390a3505050565b612582848484611b87565b61258e84848484612709565b6125cd576040517f08c379a00000000000000000000000000000000000000000000000000000000081526004016125c49061406f565b60405180910390fd5b50505050565b606060405180602001604052806000815250905090565b60606125f5826119e6565b60006125ff6125d3565b9050600081511161261f576040518060200160405280600081525061264a565b80612629846128a0565b60405160200161263a929190613b30565b6040516020818303038152906040525b915050919050565b60007f01ffc9a7000000000000000000000000000000000000000000000000000000007bffffffffffffffffffffffffffffffffffffffffffffffffffffffff1916827bffffffffffffffffffffffffffffffffffffffffffffffffffffffff1916149050919050565b60008073ffffffffffffffffffffffffffffffffffffffff166126de83611e8f565b73ffffffffffffffffffffffffffffffffffffffff1614159050919050565b50505050565b50505050565b600061272a8473ffffffffffffffffffffffffffffffffffffffff16612978565b15612893578373ffffffffffffffffffffffffffffffffffffffff1663150b7a02612753611a31565b8786866040518563ffffffff1660e01b815260040161277594939291906140e4565b602060405180830381600087803b15801561278f57600080fd5b505af19250505080156127c057506040513d601f19601f820116820180604052508101906127bd9190614145565b60015b612843573d80600081146127f0576040519150601f19603f3d011682016040523d82523d6000602084013e6127f5565b606091505b5060008151141561283b576040517f08c379a00000000000000000000000000000000000000000000000000000000081526004016128329061406f565b60405180910390fd5b805181602001fd5b63150b7a0260e01b7bffffffffffffffffffffffffffffffffffffffffffffffffffffffff1916817bffffffffffffffffffffffffffffffffffffffffffffffffffffffff191614915050612898565b600190505b949350505050565b6060600060016128af8461299b565b01905060008167ffffffffffffffff8111156128ce576128cd6130cf565b5b6040519080825280601f01601f1916602001820160405280156129005781602001600182028036833780820191505090505b509050600082602001820190505b60011561296d578080600190039150507f3031323334353637383961626364656600000000000000000000000000000000600a86061a8153600a858161295757612956614172565b5b04945060008514156129685761296d565b61290e565b819350505050919050565b6000808273ffffffffffffffffffffffffffffffffffffffff163b119050919050565b600080600090507a184f03e93ff9f4daa797ed6e38ed64bf6a1f01000000000000000083106129f9577a184f03e93ff9f4daa797ed6e38ed64bf6a1f01000000000000000083816129ef576129ee614172565b5b0492506040810190505b6d04ee2d6d415b85acef81000000008310612a36576d04ee2d6d415b85acef81000000008381612a2c57612a2b614172565b5b0492506020810190505b662386f26fc100008310612a6557662386f26fc100008381612a5b57612a5a614172565b5b0492506010810190505b6305f5e1008310612a8e576305f5e1008381612a8457612a83614172565b5b0492506008810190505b6127108310612ab3576127108381612aa957612aa8614172565b5b0492506004810190505b60648310612ad65760648381612acc57612acb614172565b5b0492506002810190505b600a8310612ae5576001810190505b80915050919050565b6040518060a0016040528060008152602001600073ffffffffffffffffffffffffffffffffffffffff168152602001600073ffffffffffffffffffffffffffffffffffffffff168152602001600081526020016000151581525090565b828054612b5790613495565b90600052602060002090601f016020900481019282612b795760008555612bc0565b82601f10612b9257805160ff1916838001178555612bc0565b82800160010185558215612bc0579182015b82811115612bbf578251825591602001919060010190612ba4565b5b509050612bcd9190612bd1565b5090565b5b80821115612bea576000816000905550600101612bd2565b5090565b6000604051905090565b600080fd5b600080fd5b60007fffffffff0000000000000000000000000000000000000000000000000000000082169050919050565b612c3781612c02565b8114612c4257600080fd5b50565b600081359050612c5481612c2e565b92915050565b600060208284031215612c7057612c6f612bf8565b5b6000612c7e84828501612c45565b91505092915050565b60008115159050919050565b612c9c81612c87565b82525050565b6000602082019050612cb76000830184612c93565b92915050565b600081519050919050565b600082825260208201905092915050565b60005b83811015612cf7578082015181840152602081019050612cdc565b83811115612d06576000848401525b50505050565b6000601f19601f8301169050919050565b6000612d2882612cbd565b612d328185612cc8565b9350612d42818560208601612cd9565b612d4b81612d0c565b840191505092915050565b60006020820190508181036000830152612d708184612d1d565b905092915050565b6000819050919050565b612d8b81612d78565b8114612d9657600080fd5b50565b600081359050612da881612d82565b92915050565b600060208284031215612dc457612dc3612bf8565b5b6000612dd284828501612d99565b91505092915050565b600073ffffffffffffffffffffffffffffffffffffffff82169050919050565b6000612e0682612ddb565b9050919050565b612e1681612dfb565b82525050565b6000602082019050612e316000830184612e0d565b92915050565b612e4081612dfb565b8114612e4b57600080fd5b50565b600081359050612e5d81612e37565b92915050565b60008060408385031215612e7a57612e79612bf8565b5b6000612e8885828601612e4e565b9250506020612e9985828601612d99565b9150509250929050565b612eac81612d78565b82525050565b6000602082019050612ec76000830184612ea3565b92915050565b600080600060608486031215612ee657612ee5612bf8565b5b6000612ef486828701612e4e565b9350506020612f0586828701612e4e565b9250506040612f1686828701612d99565b9150509250925092565b600081519050919050565b600082825260208201905092915050565b6000819050602082019050919050565b612f5581612d78565b82525050565b6000612f6682612ddb565b9050919050565b612f7681612f5b565b82525050565b612f8581612c87565b82525050565b60a082016000820151612fa16000850182612f4c565b506020820151612fb46020850182612f6d565b506040820151612fc76040850182612f6d565b506060820151612fda6060850182612f4c565b506080820151612fed6080850182612f7c565b50505050565b6000612fff8383612f8b565b60a08301905092915050565b6000602082019050919050565b600061302382612f20565b61302d8185612f2b565b935061303883612f3c565b8060005b838110156130695781516130508882612ff3565b975061305b8361300b565b92505060018101905061303c565b5085935050505092915050565b600060208201905081810360008301526130908184613018565b905092915050565b6000602082840312156130ae576130ad612bf8565b5b60006130bc84828501612e4e565b91505092915050565b600080fd5b600080fd5b7f4e487b7100000000000000000000000000000000000000000000000000000000600052604160045260246000fd5b61310782612d0c565b810181811067ffffffffffffffff82111715613126576131256130cf565b5b80604052505050565b6000613139612bee565b905061314582826130fe565b919050565b600067ffffffffffffffff821115613165576131646130cf565b5b61316e82612d0c565b9050602081019050919050565b82818337600083830152505050565b600061319d6131988461314a565b61312f565b9050828152602081018484840111156131b9576131b86130ca565b5b6131c484828561317b565b509392505050565b600082601f8301126131e1576131e06130c5565b5b81356131f184826020860161318a565b91505092915050565b6000806040838503121561321157613210612bf8565b5b600083013567ffffffffffffffff81111561322f5761322e612bfd565b5b61323b858286016131cc565b925050602061324c85828601612d99565b9150509250929050565b6000806040838503121561326d5761326c612bf8565b5b600061327b85828601612d99565b925050602061328c85828601612d99565b9150509250929050565b61329f81612c87565b81146132aa57600080fd5b50565b6000813590506132bc81613296565b92915050565b600080604083850312156132d9576132d8612bf8565b5b60006132e785828601612e4e565b92505060206132f8858286016132ad565b9150509250929050565b600067ffffffffffffffff82111561331d5761331c6130cf565b5b61332682612d0c565b9050602081019050919050565b600061334661334184613302565b61312f565b905082815260208101848484011115613362576133616130ca565b5b61336d84828561317b565b509392505050565b600082601f83011261338a576133896130c5565b5b813561339a848260208601613333565b91505092915050565b600080600080608085870312156133bd576133bc612bf8565b5b60006133cb87828801612e4e565b94505060206133dc87828801612e4e565b93505060406133ed87828801612d99565b925050606085013567ffffffffffffffff81111561340e5761340d612bfd565b5b61341a87828801613375565b91505092959194509250565b6000806040838503121561343d5761343c612bf8565b5b600061344b85828601612e4e565b925050602061345c85828601612e4e565b9150509250929050565b7f4e487b7100000000000000000000000000000000000000000000000000000000600052602260045260246000fd5b600060028204905060018216806134ad57607f821691505b602082108114156134c1576134c0613466565b5b50919050565b7f4552433732313a20617070726f76616c20746f2063757272656e74206f776e6560008201527f7200000000000000000000000000000000000000000000000000000000000000602082015250565b6000613523602183612cc8565b915061352e826134c7565b604082019050919050565b6000602082019050818103600083015261355281613516565b9050919050565b7f4552433732313a20617070726f76652063616c6c6572206973206e6f7420746f60008201527f6b656e206f776e6572206f7220617070726f76656420666f7220616c6c000000602082015250565b60006135b5603d83612cc8565b91506135c082613559565b604082019050919050565b600060208201905081810360008301526135e4816135a8565b9050919050565b7f4552433732313a2063616c6c6572206973206e6f7420746f6b656e206f776e6560008201527f72206f7220617070726f76656400000000000000000000000000000000000000602082015250565b6000613647602d83612cc8565b9150613652826135eb565b604082019050919050565b600060208201905081810360008301526136768161363a565b9050919050565b7f4e487b7100000000000000000000000000000000000000000000000000000000600052601160045260246000fd5b60006136b782612d78565b91506136c283612d78565b9250827fffffffffffffffffffffffffffffffffffffffffffffffffffffffffffffffff038211156136f7576136f661367d565b5b828201905092915050565b600061370d82612d78565b91507fffffffffffffffffffffffffffffffffffffffffffffffffffffffffffffffff8214156137405761373f61367d565b5b600182019050919050565b7f4e487b7100000000000000000000000000000000000000000000000000000000600052603260045260246000fd5b7f4552433732313a20696e76616c696420746f6b656e2049440000000000000000600082015250565b60006137b0601883612cc8565b91506137bb8261377a565b602082019050919050565b600060208201905081810360008301526137df816137a3565b9050919050565b7f4552433732313a2061646472657373207a65726f206973206e6f74206120766160008201527f6c6964206f776e65720000000000000000000000000000000000000000000000602082015250565b6000613842602983612cc8565b915061384d826137e6565b604082019050919050565b6000602082019050818103600083015261387181613835565b9050919050565b7f4f6e6c79206974656d2773206f776e65722063616e20706572666f726d20746860008201527f6973206f7065726174696f6e0000000000000000000000000000000000000000602082015250565b60006138d4602c83612cc8565b91506138df82613878565b604082019050919050565b60006020820190508181036000830152613903816138c7565b9050919050565b7f5072696365206d75737420626520657175616c20746f206c697374696e67207060008201527f7269636500000000000000000000000000000000000000000000000000000000602082015250565b6000613966602483612cc8565b91506139718261390a565b604082019050919050565b6000602082019050818103600083015261399581613959565b9050919050565b60006139a782612d78565b91506139b283612d78565b9250828210156139c5576139c461367d565b5b828203905092915050565b7f506c65617365207375626d6974207468652061736b696e67207072696365206960008201527f6e206f7264657220746f20636f6d706c65746520746865207075726368617365602082015250565b6000613a2c604083612cc8565b9150613a37826139d0565b604082019050919050565b60006020820190508181036000830152613a5b81613a1f565b9050919050565b7f6f6e6c79206f776e6572206f6620746865204d61726b657470706c616365206360008201527f616e206368616e676520746865206c697374696e672070726963650000000000602082015250565b6000613abe603b83612cc8565b9150613ac982613a62565b604082019050919050565b60006020820190508181036000830152613aed81613ab1565b9050919050565b600081905092915050565b6000613b0a82612cbd565b613b148185613af4565b9350613b24818560208601612cd9565b80840191505092915050565b6000613b3c8285613aff565b9150613b488284613aff565b91508190509392505050565b7f4552433732313a207472616e736665722066726f6d20696e636f72726563742060008201527f6f776e6572000000000000000000000000000000000000000000000000000000602082015250565b6000613bb0602583612cc8565b9150613bbb82613b54565b604082019050919050565b60006020820190508181036000830152613bdf81613ba3565b9050919050565b7f4552433732313a207472616e7366657220746f20746865207a65726f2061646460008201527f7265737300000000000000000000000000000000000000000000000000000000602082015250565b6000613c42602483612cc8565b9150613c4d82613be6565b604082019050919050565b60006020820190508181036000830152613c7181613c35565b9050919050565b7f4552433732313a206d696e7420746f20746865207a65726f2061646472657373600082015250565b6000613cae602083612cc8565b9150613cb982613c78565b602082019050919050565b60006020820190508181036000830152613cdd81613ca1565b9050919050565b7f4552433732313a20746f6b656e20616c7265616479206d696e74656400000000600082015250565b6000613d1a601c83612cc8565b9150613d2582613ce4565b602082019050919050565b60006020820190508181036000830152613d4981613d0d565b9050919050565b7f45524337323155524953746f726167653a2055524920736574206f66206e6f6e60008201527f6578697374656e7420746f6b656e000000000000000000000000000000000000602082015250565b6000613dac602e83612cc8565b9150613db782613d50565b604082019050919050565b60006020820190508181036000830152613ddb81613d9f565b9050919050565b7f5072696365206d757374206265206174206c6561737420310000000000000000600082015250565b6000613e18601883612cc8565b9150613e2382613de2565b602082019050919050565b60006020820190508181036000830152613e4781613e0b565b9050919050565b7f7072696365206d75737420626520657175616c20746f206c697374696e67207060008201527f7269636500000000000000000000000000000000000000000000000000000000602082015250565b6000613eaa602483612cc8565b9150613eb582613e4e565b604082019050919050565b60006020820190508181036000830152613ed981613e9d565b9050919050565b6000608082019050613ef56000830187612e0d565b613f026020830186612e0d565b613f0f6040830185612ea3565b613f1c6060830184612c93565b95945050505050565b7f436f756e7465723a2064656372656d656e74206f766572666c6f770000000000600082015250565b6000613f5b601b83612cc8565b9150613f6682613f25565b602082019050919050565b60006020820190508181036000830152613f8a81613f4e565b9050919050565b7f4552433732313a20617070726f766520746f2063616c6c657200000000000000600082015250565b6000613fc7601983612cc8565b9150613fd282613f91565b602082019050919050565b60006020820190508181036000830152613ff681613fba565b9050919050565b7f4552433732313a207472616e7366657220746f206e6f6e20455243373231526560008201527f63656976657220696d706c656d656e7465720000000000000000000000000000602082015250565b6000614059603283612cc8565b915061406482613ffd565b604082019050919050565b600060208201905081810360008301526140888161404c565b9050919050565b600081519050919050565b600082825260208201905092915050565b60006140b68261408f565b6140c0818561409a565b93506140d0818560208601612cd9565b6140d981612d0c565b840191505092915050565b60006080820190506140f96000830187612e0d565b6141066020830186612e0d565b6141136040830185612ea3565b818103606083015261412581846140ab565b905095945050505050565b60008151905061413f81612c2e565b92915050565b60006020828403121561415b5761415a612bf8565b5b600061416984828501614130565b91505092915050565b7f4e487b7100000000000000000000000000000000000000000000000000000000600052601260045260246000fdfea26469706673582212201b5b9445f849137b888192094e1c5f206a90ed3d997dd8d4114eef70fb2e261064736f6c63430008090033",
  "linkReferences": {},
  "deployedLinkReferences": {}
}