{
  "_format": "hh-sol-artifact-1",
  "contractName": "NFTMarketplace",
  "sourceName": "contracts/NFTMarketplace.sol",
  "abi": [
    {
      "inputs": [],
      "stateMutability": "nonpayable",
      "type": "constructor"
    },
    {
      "anonymous": false,
      "inputs": [
        {
          "indexed": true,
          "internalType": "address",
          "name": "owner",
          "type": "address"
        },
        {
          "indexed": true,
          "internalType": "address",
          "name": "approved",
          "type": "address"
        },
        {
          "indexed": true,
          "internalType": "uint256",
          "name": "tokenId",
          "type": "uint256"
        }
      ],
      "name": "Approval",
      "type": "event"
    },
    {
      "anonymous": false,
      "inputs": [
        {
          "indexed": true,
          "internalType": "address",
          "name": "owner",
          "type": "address"
        },
        {
          "indexed": true,
          "internalType": "address",
          "name": "operator",
          "type": "address"
        },
        {
          "indexed": false,
          "internalType": "bool",
          "name": "approved",
          "type": "bool"
        }
      ],
      "name": "ApprovalForAll",
      "type": "event"
    },
    {
      "anonymous": false,
      "inputs": [
        {
          "indexed": false,
          "internalType": "uint256",
          "name": "_fromTokenId",
          "type": "uint256"
        },
        {
          "indexed": false,
          "internalType": "uint256",
          "name": "_toTokenId",
          "type": "uint256"
        }
      ],
      "name": "BatchMetadataUpdate",
      "type": "event"
    },
    {
      "anonymous": false,
      "inputs": [
        {
          "indexed": false,
          "internalType": "uint256",
          "name": "_tokenId",
          "type": "uint256"
        }
      ],
      "name": "MetadataUpdate",
      "type": "event"
    },
    {
      "anonymous": false,
      "inputs": [
        {
          "indexed": true,
          "internalType": "address",
          "name": "from",
          "type": "address"
        },
        {
          "indexed": true,
          "internalType": "address",
          "name": "to",
          "type": "address"
        },
        {
          "indexed": true,
          "internalType": "uint256",
          "name": "tokenId",
          "type": "uint256"
        }
      ],
      "name": "Transfer",
      "type": "event"
    },
    {
      "anonymous": false,
      "inputs": [
        {
          "indexed": true,
          "internalType": "uint256",
          "name": "tokenId",
          "type": "uint256"
        },
        {
          "indexed": false,
          "internalType": "address",
          "name": "seller",
          "type": "address"
        },
        {
          "indexed": false,
          "internalType": "address",
          "name": "owner",
          "type": "address"
        },
        {
          "indexed": false,
          "internalType": "uint256",
          "name": "price",
          "type": "uint256"
        },
        {
          "indexed": false,
          "internalType": "bool",
          "name": "sold",
          "type": "bool"
        }
      ],
      "name": "idMarketItemCreated",
      "type": "event"
    },
    {
      "inputs": [
        {
          "internalType": "address",
          "name": "to",
          "type": "address"
        },
        {
          "internalType": "uint256",
          "name": "tokenId",
          "type": "uint256"
        }
      ],
      "name": "approve",
      "outputs": [],
      "stateMutability": "nonpayable",
      "type": "function"
    },
    {
      "inputs": [
        {
          "internalType": "address",
          "name": "owner",
          "type": "address"
        }
      ],
      "name": "balanceOf",
      "outputs": [
        {
          "internalType": "uint256",
          "name": "",
          "type": "uint256"
        }
      ],
      "stateMutability": "view",
      "type": "function"
    },
    {
      "inputs": [
        {
          "internalType": "uint256",
          "name": "tokenId",
          "type": "uint256"
        }
      ],
      "name": "createMArketSale",
      "outputs": [],
      "stateMutability": "payable",
      "type": "function"
    },
    {
      "inputs": [
        {
          "internalType": "string",
          "name": "tokenURI",
          "type": "string"
        },
        {
          "internalType": "uint256",
          "name": "price",
          "type": "uint256"
        }
      ],
      "name": "createToken",
      "outputs": [
        {
          "internalType": "uint256",
          "name": "",
          "type": "uint256"
        }
      ],
      "stateMutability": "payable",
      "type": "function"
    },
    {
      "inputs": [],
      "name": "fetchItemsListed",
      "outputs": [
        {
          "components": [
            {
              "internalType": "uint256",
              "name": "tokenId",
              "type": "uint256"
            },
            {
              "internalType": "address payable",
              "name": "seller",
              "type": "address"
            },
            {
              "internalType": "address payable",
              "name": "owner",
              "type": "address"
            },
            {
              "internalType": "uint256",
              "name": "price",
              "type": "uint256"
            },
            {
              "internalType": "bool",
              "name": "sold",
              "type": "bool"
            }
          ],
          "internalType": "struct NFTMarketplace.MarketItem[]",
          "name": "",
          "type": "tuple[]"
        }
      ],
      "stateMutability": "view",
      "type": "function"
    },
    {
      "inputs": [],
      "name": "fetchMarketItem",
      "outputs": [
        {
          "components": [
            {
              "internalType": "uint256",
              "name": "tokenId",
              "type": "uint256"
            },
            {
              "internalType": "address payable",
              "name": "seller",
              "type": "address"
            },
            {
              "internalType": "address payable",
              "name": "owner",
              "type": "address"
            },
            {
              "internalType": "uint256",
              "name": "price",
              "type": "uint256"
            },
            {
              "internalType": "bool",
              "name": "sold",
              "type": "bool"
            }
          ],
          "internalType": "struct NFTMarketplace.MarketItem[]",
          "name": "",
          "type": "tuple[]"
        }
      ],
      "stateMutability": "view",
      "type": "function"
    },
    {
      "inputs": [],
      "name": "fetchMyNft",
      "outputs": [
        {
          "components": [
            {
              "internalType": "uint256",
              "name": "tokenId",
              "type": "uint256"
            },
            {
              "internalType": "address payable",
              "name": "seller",
              "type": "address"
            },
            {
              "internalType": "address payable",
              "name": "owner",
              "type": "address"
            },
            {
              "internalType": "uint256",
              "name": "price",
              "type": "uint256"
            },
            {
              "internalType": "bool",
              "name": "sold",
              "type": "bool"
            }
          ],
          "internalType": "struct NFTMarketplace.MarketItem[]",
          "name": "",
          "type": "tuple[]"
        }
      ],
      "stateMutability": "view",
      "type": "function"
    },
    {
      "inputs": [
        {
          "internalType": "uint256",
          "name": "tokenId",
          "type": "uint256"
        }
      ],
      "name": "getApproved",
      "outputs": [
        {
          "internalType": "address",
          "name": "",
          "type": "address"
        }
      ],
      "stateMutability": "view",
      "type": "function"
    },
    {
      "inputs": [],
      "name": "getListingPrice",
      "outputs": [
        {
          "internalType": "uint256",
          "name": "",
          "type": "uint256"
        }
      ],
      "stateMutability": "view",
      "type": "function"
    },
    {
      "inputs": [
        {
          "internalType": "address",
          "name": "owner",
          "type": "address"
        },
        {
          "internalType": "address",
          "name": "operator",
          "type": "address"
        }
      ],
      "name": "isApprovedForAll",
      "outputs": [
        {
          "internalType": "bool",
          "name": "",
          "type": "bool"
        }
      ],
      "stateMutability": "view",
      "type": "function"
    },
    {
      "inputs": [],
      "name": "name",
      "outputs": [
        {
          "internalType": "string",
          "name": "",
          "type": "string"
        }
      ],
      "stateMutability": "view",
      "type": "function"
    },
    {
      "inputs": [
        {
          "internalType": "uint256",
          "name": "tokenId",
          "type": "uint256"
        }
      ],
      "name": "ownerOf",
      "outputs": [
        {
          "internalType": "address",
          "name": "",
          "type": "address"
        }
      ],
      "stateMutability": "view",
      "type": "function"
    },
    {
      "inputs": [
        {
          "internalType": "uint256",
          "name": "tokenId",
          "type": "uint256"
        },
        {
          "internalType": "uint256",
          "name": "price",
          "type": "uint256"
        }
      ],
      "name": "reSellToken",
      "outputs": [],
      "stateMutability": "payable",
      "type": "function"
    },
    {
      "inputs": [
        {
          "internalType": "address",
          "name": "from",
          "type": "address"
        },
        {
          "internalType": "address",
          "name": "to",
          "type": "address"
        },
        {
          "internalType": "uint256",
          "name": "tokenId",
          "type": "uint256"
        }
      ],
      "name": "safeTransferFrom",
      "outputs": [],
      "stateMutability": "nonpayable",
      "type": "function"
    },
    {
      "inputs": [
        {
          "internalType": "address",
          "name": "from",
          "type": "address"
        },
        {
          "internalType": "address",
          "name": "to",
          "type": "address"
        },
        {
          "internalType": "uint256",
          "name": "tokenId",
          "type": "uint256"
        },
        {
          "internalType": "bytes",
          "name": "data",
          "type": "bytes"
        }
      ],
      "name": "safeTransferFrom",
      "outputs": [],
      "stateMutability": "nonpayable",
      "type": "function"
    },
    {
      "inputs": [
        {
          "internalType": "address",
          "name": "operator",
          "type": "address"
        },
        {
          "internalType": "bool",
          "name": "approved",
          "type": "bool"
        }
      ],
      "name": "setApprovalForAll",
      "outputs": [],
      "stateMutability": "nonpayable",
      "type": "function"
    },
    {
      "inputs": [
        {
          "internalType": "bytes4",
          "name": "interfaceId",
          "type": "bytes4"
        }
      ],
      "name": "supportsInterface",
      "outputs": [
        {
          "internalType": "bool",
          "name": "",
          "type": "bool"
        }
      ],
      "stateMutability": "view",
      "type": "function"
    },
    {
      "inputs": [],
      "name": "symbol",
      "outputs": [
        {
          "internalType": "string",
          "name": "",
          "type": "string"
        }
      ],
      "stateMutability": "view",
      "type": "function"
    },
    {
      "inputs": [
        {
          "internalType": "uint256",
          "name": "tokenId",
          "type": "uint256"
        }
      ],
      "name": "tokenURI",
      "outputs": [
        {
          "internalType": "string",
          "name": "",
          "type": "string"
        }
      ],
      "stateMutability": "view",
      "type": "function"
    },
    {
      "inputs": [
        {
          "internalType": "address",
          "name": "from",
          "type": "address"
        },
        {
          "internalType": "address",
          "name": "to",
          "type": "address"
        },
        {
          "internalType": "uint256",
          "name": "tokenId",
          "type": "uint256"
        }
      ],
      "name": "transferFrom",
      "outputs": [],
      "stateMutability": "nonpayable",
      "type": "function"
    },
    {
      "inputs": [
        {
          "internalType": "uint256",
          "name": "_listingPrice",
          "type": "uint256"
        }
      ],
      "name": "updateListingPrice",
      "outputs": [],
      "stateMutability": "payable",
      "type": "function"
    }
  ],
  "bytecode": "0x60806040526605543df729c0006009553480156200001c57600080fd5b506040518060400160405280601381526020017f4e4654204d657461766572736520546f6b656e000000000000000000000000008152506040518060400160405280600581526020017f4d594e46540000000000000000000000000000000000000000000000000000008152508160009080519060200190620000a1929190620000e9565b508060019080519060200190620000ba929190620000e9565b5050503373ffffffffffffffffffffffffffffffffffffffff16600a60009054906101000a90505050620001fe565b828054620000f79062000199565b90600052602060002090601f0160209004810192826200011b576000855562000167565b82601f106200013657805160ff191683800117855562000167565b8280016001018555821562000167579182015b828111156200016657825182559160200191906001019062000149565b5b5090506200017691906200017a565b5090565b5b80821115620001955760008160009055506001016200017b565b5090565b60006002820490506001821680620001b257607f821691505b60208210811415620001c957620001c8620001cf565b5b50919050565b7f4e487b7100000000000000000000000000000000000000000000000000000000600052602260045260246000fd5b614335806200020e6000396000f3fe60806040526004361061012a5760003560e01c806372b3b620116100ab5780639f7699eb1161006f5780639f7699eb146103dd578063a22cb46514610408578063ae677aa314610431578063b88d4fde1461044d578063c87b56dd14610476578063e985e9c5146104b35761012a565b806372b3b6201461031f57806385535b251461034f5780638fafd0211461036b5780639467b0b81461039657806395d89b41146103b25761012a565b806323b872dd116100f257806323b872dd1461022857806342842e0e1461025157806345f8fa801461027a5780636352211e146102a557806370a08231146102e25761012a565b806301ffc9a71461012f57806306fdde031461016c578063081812fc14610197578063095ea7b3146101d457806312e85585146101fd575b600080fd5b34801561013b57600080fd5b50610156600480360381019061015191906130e2565b6104f0565b6040516101639190613753565b60405180910390f35b34801561017857600080fd5b50610181610551565b60405161018e919061376e565b60405180910390f35b3480156101a357600080fd5b506101be60048036038101906101b99190613188565b6105e3565b6040516101cb9190613685565b60405180910390f35b3480156101e057600080fd5b506101fb60048036038101906101f691906130a6565b610629565b005b34801561020957600080fd5b50610212610741565b60405161021f91906139f0565b60405180910390f35b34801561023457600080fd5b5061024f600480360381019061024a9190612fa0565b61074b565b005b34801561025d57600080fd5b5061027860048036038101906102739190612fa0565b6107ab565b005b34801561028657600080fd5b5061028f6107cb565b60405161029c9190613731565b60405180910390f35b3480156102b157600080fd5b506102cc60048036038101906102c79190613188565b610b03565b6040516102d99190613685565b60405180910390f35b3480156102ee57600080fd5b5061030960048036038101906103049190612f3b565b610b8a565b60405161031691906139f0565b60405180910390f35b61033960048036038101906103349190613134565b610c42565b60405161034691906139f0565b60405180910390f35b610369600480360381019061036491906131b1565b610c84565b005b34801561037757600080fd5b50610380610e79565b60405161038d9190613731565b60405180910390f35b6103b060048036038101906103ab9190613188565b61112d565b005b3480156103be57600080fd5b506103c7611365565b6040516103d4919061376e565b60405180910390f35b3480156103e957600080fd5b506103f26113f7565b6040516103ff9190613731565b60405180910390f35b34801561041457600080fd5b5061042f600480360381019061042a919061306a565b61172f565b005b61044b60048036038101906104469190613188565b611745565b005b34801561045957600080fd5b50610474600480360381019061046f9190612fef565b6117df565b005b34801561048257600080fd5b5061049d60048036038101906104989190613188565b611841565b6040516104aa919061376e565b60405180910390f35b3480156104bf57600080fd5b506104da60048036038101906104d59190612f64565b611954565b6040516104e79190613753565b60405180910390f35b6000634906490660e01b7bffffffffffffffffffffffffffffffffffffffffffffffffffffffff1916827bffffffffffffffffffffffffffffffffffffffffffffffffffffffff1916148061054a5750610549826119e8565b5b9050919050565b60606000805461056090613c60565b80601f016020809104026020016040519081016040528092919081815260200182805461058c90613c60565b80156105d95780601f106105ae576101008083540402835291602001916105d9565b820191906000526020600020905b8154815290600101906020018083116105bc57829003601f168201915b5050505050905090565b60006105ee82611aca565b6004600083815260200190815260200160002060009054906101000a900473ffffffffffffffffffffffffffffffffffffffff169050919050565b600061063482610b03565b90508073ffffffffffffffffffffffffffffffffffffffff168373ffffffffffffffffffffffffffffffffffffffff1614156106a5576040517f08c379a000000000000000000000000000000000000000000000000000000000815260040161069c90613970565b60405180910390fd5b8073ffffffffffffffffffffffffffffffffffffffff166106c4611b15565b73ffffffffffffffffffffffffffffffffffffffff1614806106f357506106f2816106ed611b15565b611954565b5b610732576040517f08c379a0000000000000000000000000000000000000000000000000000000008152600401610729906139b0565b60405180910390fd5b61073c8383611b1d565b505050565b6000600954905090565b61075c610756611b15565b82611bd6565b61079b576040517f08c379a000000000000000000000000000000000000000000000000000000000815260040161079290613790565b60405180910390fd5b6107a6838383611c6b565b505050565b6107c6838383604051806020016040528060008152506117df565b505050565b606060006107d96007611f65565b905060008060005b83811015610881573373ffffffffffffffffffffffffffffffffffffffff16600b60006001846108119190613b0e565b815260200190815260200160002060010160009054906101000a900473ffffffffffffffffffffffffffffffffffffffff1673ffffffffffffffffffffffffffffffffffffffff16141561086e57828061086a90613cc3565b9350505b808061087990613cc3565b9150506107e1565b5060008267ffffffffffffffff8111156108c4577f4e487b7100000000000000000000000000000000000000000000000000000000600052604160045260246000fd5b6040519080825280602002602001820160405280156108fd57816020015b6108ea612d02565b8152602001906001900390816108e25790505b50905060005b84811015610af8573373ffffffffffffffffffffffffffffffffffffffff16600b60006001846109339190613b0e565b815260200190815260200160002060010160009054906101000a900473ffffffffffffffffffffffffffffffffffffffff1673ffffffffffffffffffffffffffffffffffffffff161415610ae55760006001826109909190613b0e565b90506000600b60008381526020019081526020016000209050806040518060a0016040529081600082015481526020016001820160009054906101000a900473ffffffffffffffffffffffffffffffffffffffff1673ffffffffffffffffffffffffffffffffffffffff1673ffffffffffffffffffffffffffffffffffffffff1681526020016002820160009054906101000a900473ffffffffffffffffffffffffffffffffffffffff1673ffffffffffffffffffffffffffffffffffffffff1673ffffffffffffffffffffffffffffffffffffffff168152602001600382015481526020016004820160009054906101000a900460ff161515151581525050848681518110610ac9577f4e487b7100000000000000000000000000000000000000000000000000000000600052603260045260246000fd5b60200260200101819052508480610adf90613cc3565b95505050505b8080610af090613cc3565b915050610903565b508094505050505090565b600080610b0f83611f73565b9050600073ffffffffffffffffffffffffffffffffffffffff168173ffffffffffffffffffffffffffffffffffffffff161415610b81576040517f08c379a0000000000000000000000000000000000000000000000000000000008152600401610b7890613950565b60405180910390fd5b80915050919050565b60008073ffffffffffffffffffffffffffffffffffffffff168273ffffffffffffffffffffffffffffffffffffffff161415610bfb576040517f08c379a0000000000000000000000000000000000000000000000000000000008152600401610bf290613890565b60405180910390fd5b600360008373ffffffffffffffffffffffffffffffffffffffff1673ffffffffffffffffffffffffffffffffffffffff168152602001908152602001600020549050919050565b6000610c4e6007611fb0565b6000610c5a6007611f65565b9050610c663382611fc6565b610c7081856121e4565b610c7a818461228f565b8091505092915050565b3373ffffffffffffffffffffffffffffffffffffffff16600b600084815260200190815260200160002060020160009054906101000a900473ffffffffffffffffffffffffffffffffffffffff1673ffffffffffffffffffffffffffffffffffffffff1614610d28576040517f08c379a0000000000000000000000000000000000000000000000000000000008152600401610d1f906139d0565b60405180910390fd5b6009543414610d6c576040517f08c379a0000000000000000000000000000000000000000000000000000000008152600401610d6390613990565b60405180910390fd5b6000600b600084815260200190815260200160002060040160006101000a81548160ff02191690831515021790555080600b60008481526020019081526020016000206003018190555033600b600084815260200190815260200160002060010160006101000a81548173ffffffffffffffffffffffffffffffffffffffff021916908373ffffffffffffffffffffffffffffffffffffffff16021790555030600b600084815260200190815260200160002060020160006101000a81548173ffffffffffffffffffffffffffffffffffffffff021916908373ffffffffffffffffffffffffffffffffffffffff160217905550610e6a6008612492565b610e75333084611c6b565b5050565b60606000610e876007611f65565b90506000610e956008611f65565b610e9f6007611f65565b610ea99190613b64565b90506000808267ffffffffffffffff811115610eee577f4e487b7100000000000000000000000000000000000000000000000000000000600052604160045260246000fd5b604051908082528060200260200182016040528015610f2757816020015b610f14612d02565b815260200190600190039081610f0c5790505b50905060005b84811015611122573073ffffffffffffffffffffffffffffffffffffffff16600b6000600184610f5d9190613b0e565b815260200190815260200160002060020160009054906101000a900473ffffffffffffffffffffffffffffffffffffffff1673ffffffffffffffffffffffffffffffffffffffff16141561110f576000600182610fba9190613b0e565b90506000600b60008381526020019081526020016000209050806040518060a0016040529081600082015481526020016001820160009054906101000a900473ffffffffffffffffffffffffffffffffffffffff1673ffffffffffffffffffffffffffffffffffffffff1673ffffffffffffffffffffffffffffffffffffffff1681526020016002820160009054906101000a900473ffffffffffffffffffffffffffffffffffffffff1673ffffffffffffffffffffffffffffffffffffffff1673ffffffffffffffffffffffffffffffffffffffff168152602001600382015481526020016004820160009054906101000a900460ff1615151515815250508486815181106110f3577f4e487b7100000000000000000000000000000000000000000000000000000000600052603260045260246000fd5b6020026020010181905250848061110990613cc3565b95505050505b808061111a90613cc3565b915050610f2d565b508094505050505090565b6000600b600083815260200190815260200160002060030154905080341461118a576040517f08c379a0000000000000000000000000000000000000000000000000000000008152600401611181906138f0565b60405180910390fd5b33600b600084815260200190815260200160002060020160006101000a81548173ffffffffffffffffffffffffffffffffffffffff021916908373ffffffffffffffffffffffffffffffffffffffff1602179055506001600b600084815260200190815260200160002060040160006101000a81548160ff0219169083151502179055506000600b600084815260200190815260200160002060020160006101000a81548173ffffffffffffffffffffffffffffffffffffffff021916908373ffffffffffffffffffffffffffffffffffffffff16021790555061126e6008611fb0565b611279303384611c6b565b600a60009054906101000a900473ffffffffffffffffffffffffffffffffffffffff1673ffffffffffffffffffffffffffffffffffffffff166108fc6009549081150290604051600060405180830381858888f193505050501580156112e3573d6000803e3d6000fd5b50600b600083815260200190815260200160002060010160009054906101000a900473ffffffffffffffffffffffffffffffffffffffff1673ffffffffffffffffffffffffffffffffffffffff166108fc349081150290604051600060405180830381858888f19350505050158015611360573d6000803e3d6000fd5b505050565b60606001805461137490613c60565b80601f01602080910402602001604051908101604052809291908181526020018280546113a090613c60565b80156113ed5780601f106113c2576101008083540402835291602001916113ed565b820191906000526020600020905b8154815290600101906020018083116113d057829003601f168201915b5050505050905090565b606060006114056007611f65565b905060008060005b838110156114ad573373ffffffffffffffffffffffffffffffffffffffff16600b600060018461143d9190613b0e565b815260200190815260200160002060020160009054906101000a900473ffffffffffffffffffffffffffffffffffffffff1673ffffffffffffffffffffffffffffffffffffffff16141561149a57828061149690613cc3565b9350505b80806114a590613cc3565b91505061140d565b5060008267ffffffffffffffff8111156114f0577f4e487b7100000000000000000000000000000000000000000000000000000000600052604160045260246000fd5b60405190808252806020026020018201604052801561152957816020015b611516612d02565b81526020019060019003908161150e5790505b50905060005b84811015611724573373ffffffffffffffffffffffffffffffffffffffff16600b600060018461155f9190613b0e565b815260200190815260200160002060020160009054906101000a900473ffffffffffffffffffffffffffffffffffffffff1673ffffffffffffffffffffffffffffffffffffffff1614156117115760006001826115bc9190613b0e565b90506000600b60008381526020019081526020016000209050806040518060a0016040529081600082015481526020016001820160009054906101000a900473ffffffffffffffffffffffffffffffffffffffff1673ffffffffffffffffffffffffffffffffffffffff1673ffffffffffffffffffffffffffffffffffffffff1681526020016002820160009054906101000a900473ffffffffffffffffffffffffffffffffffffffff1673ffffffffffffffffffffffffffffffffffffffff1673ffffffffffffffffffffffffffffffffffffffff168152602001600382015481526020016004820160009054906101000a900460ff1615151515815250508486815181106116f5577f4e487b7100000000000000000000000000000000000000000000000000000000600052603260045260246000fd5b6020026020010181905250848061170b90613cc3565b95505050505b808061171c90613cc3565b91505061152f565b508094505050505090565b61174161173a611b15565b83836124ee565b5050565b600a60009054906101000a900473ffffffffffffffffffffffffffffffffffffffff1673ffffffffffffffffffffffffffffffffffffffff163373ffffffffffffffffffffffffffffffffffffffff16146117d5576040517f08c379a00000000000000000000000000000000000000000000000000000000081526004016117cc90613870565b60405180910390fd5b8060098190555050565b6117f06117ea611b15565b83611bd6565b61182f576040517f08c379a000000000000000000000000000000000000000000000000000000000815260040161182690613790565b60405180910390fd5b61183b8484848461265b565b50505050565b606061184c82611aca565b600060066000848152602001908152602001600020805461186c90613c60565b80601f016020809104026020016040519081016040528092919081815260200182805461189890613c60565b80156118e55780601f106118ba576101008083540402835291602001916118e5565b820191906000526020600020905b8154815290600101906020018083116118c857829003601f168201915b5050505050905060006118f66126b7565b905060008151141561190c57819250505061194f565b600082511115611941578082604051602001611929929190613661565b6040516020818303038152906040529250505061194f565b61194a846126ce565b925050505b919050565b6000600560008473ffffffffffffffffffffffffffffffffffffffff1673ffffffffffffffffffffffffffffffffffffffff16815260200190815260200160002060008373ffffffffffffffffffffffffffffffffffffffff1673ffffffffffffffffffffffffffffffffffffffff16815260200190815260200160002060009054906101000a900460ff16905092915050565b60007f80ac58cd000000000000000000000000000000000000000000000000000000007bffffffffffffffffffffffffffffffffffffffffffffffffffffffff1916827bffffffffffffffffffffffffffffffffffffffffffffffffffffffff19161480611ab357507f5b5e139f000000000000000000000000000000000000000000000000000000007bffffffffffffffffffffffffffffffffffffffffffffffffffffffff1916827bffffffffffffffffffffffffffffffffffffffffffffffffffffffff1916145b80611ac35750611ac282612736565b5b9050919050565b611ad3816127a0565b611b12576040517f08c379a0000000000000000000000000000000000000000000000000000000008152600401611b0990613950565b60405180910390fd5b50565b600033905090565b816004600083815260200190815260200160002060006101000a81548173ffffffffffffffffffffffffffffffffffffffff021916908373ffffffffffffffffffffffffffffffffffffffff160217905550808273ffffffffffffffffffffffffffffffffffffffff16611b9083610b03565b73ffffffffffffffffffffffffffffffffffffffff167f8c5be1e5ebec7d5bd14f71427d1e84f3dd0314c0f7b2291e5b200ac8c7c3b92560405160405180910390a45050565b600080611be283610b03565b90508073ffffffffffffffffffffffffffffffffffffffff168473ffffffffffffffffffffffffffffffffffffffff161480611c245750611c238185611954565b5b80611c6257508373ffffffffffffffffffffffffffffffffffffffff16611c4a846105e3565b73ffffffffffffffffffffffffffffffffffffffff16145b91505092915050565b8273ffffffffffffffffffffffffffffffffffffffff16611c8b82610b03565b73ffffffffffffffffffffffffffffffffffffffff1614611ce1576040517f08c379a0000000000000000000000000000000000000000000000000000000008152600401611cd8906137f0565b60405180910390fd5b600073ffffffffffffffffffffffffffffffffffffffff168273ffffffffffffffffffffffffffffffffffffffff161415611d51576040517f08c379a0000000000000000000000000000000000000000000000000000000008152600401611d4890613830565b60405180910390fd5b611d5e83838360016127e1565b8273ffffffffffffffffffffffffffffffffffffffff16611d7e82610b03565b73ffffffffffffffffffffffffffffffffffffffff1614611dd4576040517f08c379a0000000000000000000000000000000000000000000000000000000008152600401611dcb906137f0565b60405180910390fd5b6004600082815260200190815260200160002060006101000a81549073ffffffffffffffffffffffffffffffffffffffff02191690556001600360008573ffffffffffffffffffffffffffffffffffffffff1673ffffffffffffffffffffffffffffffffffffffff168152602001908152602001600020600082825403925050819055506001600360008473ffffffffffffffffffffffffffffffffffffffff1673ffffffffffffffffffffffffffffffffffffffff16815260200190815260200160002060008282540192505081905550816002600083815260200190815260200160002060006101000a81548173ffffffffffffffffffffffffffffffffffffffff021916908373ffffffffffffffffffffffffffffffffffffffff160217905550808273ffffffffffffffffffffffffffffffffffffffff168473ffffffffffffffffffffffffffffffffffffffff167fddf252ad1be2c89b69c2b068fc378daa952ba7f163c4a11628f55a4df523b3ef60405160405180910390a4611f6083838360016127e7565b505050565b600081600001549050919050565b60006002600083815260200190815260200160002060009054906101000a900473ffffffffffffffffffffffffffffffffffffffff169050919050565b6001816000016000828254019250508190555050565b600073ffffffffffffffffffffffffffffffffffffffff168273ffffffffffffffffffffffffffffffffffffffff161415612036576040517f08c379a000000000000000000000000000000000000000000000000000000000815260040161202d90613910565b60405180910390fd5b61203f816127a0565b1561207f576040517f08c379a000000000000000000000000000000000000000000000000000000000815260040161207690613810565b60405180910390fd5b61208d6000838360016127e1565b612096816127a0565b156120d6576040517f08c379a00000000000000000000000000000000000000000000000000000000081526004016120cd90613810565b60405180910390fd5b6001600360008473ffffffffffffffffffffffffffffffffffffffff1673ffffffffffffffffffffffffffffffffffffffff16815260200190815260200160002060008282540192505081905550816002600083815260200190815260200160002060006101000a81548173ffffffffffffffffffffffffffffffffffffffff021916908373ffffffffffffffffffffffffffffffffffffffff160217905550808273ffffffffffffffffffffffffffffffffffffffff16600073ffffffffffffffffffffffffffffffffffffffff167fddf252ad1be2c89b69c2b068fc378daa952ba7f163c4a11628f55a4df523b3ef60405160405180910390a46121e06000838360016127e7565b5050565b6121ed826127a0565b61222c576040517f08c379a0000000000000000000000000000000000000000000000000000000008152600401612223906138b0565b60405180910390fd5b80600660008481526020019081526020016000209080519060200190612253929190612d5f565b507ff8e1a15aba9398e019f0b49df1a4fde98ee17ae345cb5f6b5e2c27f5033e8ce78260405161228391906139f0565b60405180910390a15050565b600081116122d2576040517f08c379a00000000000000000000000000000000000000000000000000000000081526004016122c990613930565b60405180910390fd5b6009543414612316576040517f08c379a000000000000000000000000000000000000000000000000000000000815260040161230d906138d0565b60405180910390fd5b6040518060a001604052808381526020013373ffffffffffffffffffffffffffffffffffffffff1681526020013073ffffffffffffffffffffffffffffffffffffffff16815260200182815260200160001515815250600b60008481526020019081526020016000206000820151816000015560208201518160010160006101000a81548173ffffffffffffffffffffffffffffffffffffffff021916908373ffffffffffffffffffffffffffffffffffffffff16021790555060408201518160020160006101000a81548173ffffffffffffffffffffffffffffffffffffffff021916908373ffffffffffffffffffffffffffffffffffffffff1602179055506060820151816003015560808201518160040160006101000a81548160ff02191690831515021790555090505061244f333084611c6b565b817fdebdb32cb5230ab727c9c361b16fdb2015df225c10e6a3e7f60ecd5dc5be4516333084600060405161248694939291906136a0565b60405180910390a25050565b600081600001549050600081116124de576040517f08c379a00000000000000000000000000000000000000000000000000000000081526004016124d5906137b0565b60405180910390fd5b6001810382600001819055505050565b8173ffffffffffffffffffffffffffffffffffffffff168373ffffffffffffffffffffffffffffffffffffffff16141561255d576040517f08c379a000000000000000000000000000000000000000000000000000000000815260040161255490613850565b60405180910390fd5b80600560008573ffffffffffffffffffffffffffffffffffffffff1673ffffffffffffffffffffffffffffffffffffffff16815260200190815260200160002060008473ffffffffffffffffffffffffffffffffffffffff1673ffffffffffffffffffffffffffffffffffffffff16815260200190815260200160002060006101000a81548160ff0219169083151502179055508173ffffffffffffffffffffffffffffffffffffffff168373ffffffffffffffffffffffffffffffffffffffff167f17307eab39ab6107e8899845ad3d59bd9653f200f220920489ca2b5937696c318360405161264e9190613753565b60405180910390a3505050565b612666848484611c6b565b612672848484846127ed565b6126b1576040517f08c379a00000000000000000000000000000000000000000000000000000000081526004016126a8906137d0565b60405180910390fd5b50505050565b606060405180602001604052806000815250905090565b60606126d982611aca565b60006126e36126b7565b90506000815111612703576040518060200160405280600081525061272e565b8061270d84612984565b60405160200161271e929190613661565b6040516020818303038152906040525b915050919050565b60007f01ffc9a7000000000000000000000000000000000000000000000000000000007bffffffffffffffffffffffffffffffffffffffffffffffffffffffff1916827bffffffffffffffffffffffffffffffffffffffffffffffffffffffff1916149050919050565b60008073ffffffffffffffffffffffffffffffffffffffff166127c283611f73565b73ffffffffffffffffffffffffffffffffffffffff1614159050919050565b50505050565b50505050565b600061280e8473ffffffffffffffffffffffffffffffffffffffff16612aa8565b15612977578373ffffffffffffffffffffffffffffffffffffffff1663150b7a02612837611b15565b8786866040518563ffffffff1660e01b815260040161285994939291906136e5565b602060405180830381600087803b15801561287357600080fd5b505af19250505080156128a457506040513d601f19601f820116820180604052508101906128a1919061310b565b60015b612927573d80600081146128d4576040519150601f19603f3d011682016040523d82523d6000602084013e6128d9565b606091505b5060008151141561291f576040517f08c379a0000000000000000000000000000000000000000000000000000000008152600401612916906137d0565b60405180910390fd5b805181602001fd5b63150b7a0260e01b7bffffffffffffffffffffffffffffffffffffffffffffffffffffffff1916817bffffffffffffffffffffffffffffffffffffffffffffffffffffffff19161491505061297c565b600190505b949350505050565b60606000600161299384612acb565b01905060008167ffffffffffffffff8111156129d8577f4e487b7100000000000000000000000000000000000000000000000000000000600052604160045260246000fd5b6040519080825280601f01601f191660200182016040528015612a0a5781602001600182028036833780820191505090505b509050600082602001820190505b600115612a9d578080600190039150507f3031323334353637383961626364656600000000000000000000000000000000600a86061a8153600a8581612a87577f4e487b7100000000000000000000000000000000000000000000000000000000600052601260045260246000fd5b0494506000851415612a9857612a9d565b612a18565b819350505050919050565b6000808273ffffffffffffffffffffffffffffffffffffffff163b119050919050565b600080600090507a184f03e93ff9f4daa797ed6e38ed64bf6a1f0100000000000000008310612b4f577a184f03e93ff9f4daa797ed6e38ed64bf6a1f0100000000000000008381612b45577f4e487b7100000000000000000000000000000000000000000000000000000000600052601260045260246000fd5b0492506040810190505b6d04ee2d6d415b85acef81000000008310612bb2576d04ee2d6d415b85acef81000000008381612ba8577f4e487b7100000000000000000000000000000000000000000000000000000000600052601260045260246000fd5b0492506020810190505b662386f26fc100008310612c0757662386f26fc100008381612bfd577f4e487b7100000000000000000000000000000000000000000000000000000000600052601260045260246000fd5b0492506010810190505b6305f5e1008310612c56576305f5e1008381612c4c577f4e487b7100000000000000000000000000000000000000000000000000000000600052601260045260246000fd5b0492506008810190505b6127108310612ca1576127108381612c97577f4e487b7100000000000000000000000000000000000000000000000000000000600052601260045260246000fd5b0492506004810190505b60648310612cea5760648381612ce0577f4e487b7100000000000000000000000000000000000000000000000000000000600052601260045260246000fd5b0492506002810190505b600a8310612cf9576001810190505b80915050919050565b6040518060a0016040528060008152602001600073ffffffffffffffffffffffffffffffffffffffff168152602001600073ffffffffffffffffffffffffffffffffffffffff168152602001600081526020016000151581525090565b828054612d6b90613c60565b90600052602060002090601f016020900481019282612d8d5760008555612dd4565b82601f10612da657805160ff1916838001178555612dd4565b82800160010185558215612dd4579182015b82811115612dd3578251825591602001919060010190612db8565b5b509050612de19190612de5565b5090565b5b80821115612dfe576000816000905550600101612de6565b5090565b6000612e15612e1084613a30565b613a0b565b905082815260208101848484011115612e2d57600080fd5b612e38848285613c1e565b509392505050565b6000612e53612e4e84613a61565b613a0b565b905082815260208101848484011115612e6b57600080fd5b612e76848285613c1e565b509392505050565b600081359050612e8d816142a3565b92915050565b600081359050612ea2816142ba565b92915050565b600081359050612eb7816142d1565b92915050565b600081519050612ecc816142d1565b92915050565b600082601f830112612ee357600080fd5b8135612ef3848260208601612e02565b91505092915050565b600082601f830112612f0d57600080fd5b8135612f1d848260208601612e40565b91505092915050565b600081359050612f35816142e8565b92915050565b600060208284031215612f4d57600080fd5b6000612f5b84828501612e7e565b91505092915050565b60008060408385031215612f7757600080fd5b6000612f8585828601612e7e565b9250506020612f9685828601612e7e565b9150509250929050565b600080600060608486031215612fb557600080fd5b6000612fc386828701612e7e565b9350506020612fd486828701612e7e565b9250506040612fe586828701612f26565b9150509250925092565b6000806000806080858703121561300557600080fd5b600061301387828801612e7e565b945050602061302487828801612e7e565b935050604061303587828801612f26565b925050606085013567ffffffffffffffff81111561305257600080fd5b61305e87828801612ed2565b91505092959194509250565b6000806040838503121561307d57600080fd5b600061308b85828601612e7e565b925050602061309c85828601612e93565b9150509250929050565b600080604083850312156130b957600080fd5b60006130c785828601612e7e565b92505060206130d885828601612f26565b9150509250929050565b6000602082840312156130f457600080fd5b600061310284828501612ea8565b91505092915050565b60006020828403121561311d57600080fd5b600061312b84828501612ebd565b91505092915050565b6000806040838503121561314757600080fd5b600083013567ffffffffffffffff81111561316157600080fd5b61316d85828601612efc565b925050602061317e85828601612f26565b9150509250929050565b60006020828403121561319a57600080fd5b60006131a884828501612f26565b91505092915050565b600080604083850312156131c457600080fd5b60006131d285828601612f26565b92505060206131e385828601612f26565b9150509250929050565b60006131f983836135db565b60a08301905092915050565b61320e81613baa565b82525050565b61321d81613b98565b82525050565b600061322e82613aa2565b6132388185613ad0565b935061324383613a92565b8060005b8381101561327457815161325b88826131ed565b975061326683613ac3565b925050600181019050613247565b5085935050505092915050565b61328a81613bbc565b82525050565b61329981613bbc565b82525050565b60006132aa82613aad565b6132b48185613ae1565b93506132c4818560208601613c2d565b6132cd81613d99565b840191505092915050565b60006132e382613ab8565b6132ed8185613af2565b93506132fd818560208601613c2d565b61330681613d99565b840191505092915050565b600061331c82613ab8565b6133268185613b03565b9350613336818560208601613c2d565b80840191505092915050565b600061334f602d83613af2565b915061335a82613daa565b604082019050919050565b6000613372601b83613af2565b915061337d82613df9565b602082019050919050565b6000613395603283613af2565b91506133a082613e22565b604082019050919050565b60006133b8602583613af2565b91506133c382613e71565b604082019050919050565b60006133db601c83613af2565b91506133e682613ec0565b602082019050919050565b60006133fe602483613af2565b915061340982613ee9565b604082019050919050565b6000613421601983613af2565b915061342c82613f38565b602082019050919050565b6000613444603b83613af2565b915061344f82613f61565b604082019050919050565b6000613467602983613af2565b915061347282613fb0565b604082019050919050565b600061348a602e83613af2565b915061349582613fff565b604082019050919050565b60006134ad602483613af2565b91506134b88261404e565b604082019050919050565b60006134d0604083613af2565b91506134db8261409d565b604082019050919050565b60006134f3602083613af2565b91506134fe826140ec565b602082019050919050565b6000613516601883613af2565b915061352182614115565b602082019050919050565b6000613539601883613af2565b91506135448261413e565b602082019050919050565b600061355c602183613af2565b915061356782614167565b604082019050919050565b600061357f602483613af2565b915061358a826141b6565b604082019050919050565b60006135a2603d83613af2565b91506135ad82614205565b604082019050919050565b60006135c5602c83613af2565b91506135d082614254565b604082019050919050565b60a0820160008201516135f16000850182613643565b5060208201516136046020850182613205565b5060408201516136176040850182613205565b50606082015161362a6060850182613643565b50608082015161363d6080850182613281565b50505050565b61364c81613c14565b82525050565b61365b81613c14565b82525050565b600061366d8285613311565b91506136798284613311565b91508190509392505050565b600060208201905061369a6000830184613214565b92915050565b60006080820190506136b56000830187613214565b6136c26020830186613214565b6136cf6040830185613652565b6136dc6060830184613290565b95945050505050565b60006080820190506136fa6000830187613214565b6137076020830186613214565b6137146040830185613652565b8181036060830152613726818461329f565b905095945050505050565b6000602082019050818103600083015261374b8184613223565b905092915050565b60006020820190506137686000830184613290565b92915050565b6000602082019050818103600083015261378881846132d8565b905092915050565b600060208201905081810360008301526137a981613342565b9050919050565b600060208201905081810360008301526137c981613365565b9050919050565b600060208201905081810360008301526137e981613388565b9050919050565b60006020820190508181036000830152613809816133ab565b9050919050565b60006020820190508181036000830152613829816133ce565b9050919050565b60006020820190508181036000830152613849816133f1565b9050919050565b6000602082019050818103600083015261386981613414565b9050919050565b6000602082019050818103600083015261388981613437565b9050919050565b600060208201905081810360008301526138a98161345a565b9050919050565b600060208201905081810360008301526138c98161347d565b9050919050565b600060208201905081810360008301526138e9816134a0565b9050919050565b60006020820190508181036000830152613909816134c3565b9050919050565b60006020820190508181036000830152613929816134e6565b9050919050565b6000602082019050818103600083015261394981613509565b9050919050565b600060208201905081810360008301526139698161352c565b9050919050565b600060208201905081810360008301526139898161354f565b9050919050565b600060208201905081810360008301526139a981613572565b9050919050565b600060208201905081810360008301526139c981613595565b9050919050565b600060208201905081810360008301526139e9816135b8565b9050919050565b6000602082019050613a056000830184613652565b92915050565b6000613a15613a26565b9050613a218282613c92565b919050565b6000604051905090565b600067ffffffffffffffff821115613a4b57613a4a613d6a565b5b613a5482613d99565b9050602081019050919050565b600067ffffffffffffffff821115613a7c57613a7b613d6a565b5b613a8582613d99565b9050602081019050919050565b6000819050602082019050919050565b600081519050919050565b600081519050919050565b600081519050919050565b6000602082019050919050565b600082825260208201905092915050565b600082825260208201905092915050565b600082825260208201905092915050565b600081905092915050565b6000613b1982613c14565b9150613b2483613c14565b9250827fffffffffffffffffffffffffffffffffffffffffffffffffffffffffffffffff03821115613b5957613b58613d0c565b5b828201905092915050565b6000613b6f82613c14565b9150613b7a83613c14565b925082821015613b8d57613b8c613d0c565b5b828203905092915050565b6000613ba382613bf4565b9050919050565b6000613bb582613bf4565b9050919050565b60008115159050919050565b60007fffffffff0000000000000000000000000000000000000000000000000000000082169050919050565b600073ffffffffffffffffffffffffffffffffffffffff82169050919050565b6000819050919050565b82818337600083830152505050565b60005b83811015613c4b578082015181840152602081019050613c30565b83811115613c5a576000848401525b50505050565b60006002820490506001821680613c7857607f821691505b60208210811415613c8c57613c8b613d3b565b5b50919050565b613c9b82613d99565b810181811067ffffffffffffffff82111715613cba57613cb9613d6a565b5b80604052505050565b6000613cce82613c14565b91507fffffffffffffffffffffffffffffffffffffffffffffffffffffffffffffffff821415613d0157613d00613d0c565b5b600182019050919050565b7f4e487b7100000000000000000000000000000000000000000000000000000000600052601160045260246000fd5b7f4e487b7100000000000000000000000000000000000000000000000000000000600052602260045260246000fd5b7f4e487b7100000000000000000000000000000000000000000000000000000000600052604160045260246000fd5b6000601f19601f8301169050919050565b7f4552433732313a2063616c6c6572206973206e6f7420746f6b656e206f776e6560008201527f72206f7220617070726f76656400000000000000000000000000000000000000602082015250565b7f436f756e7465723a2064656372656d656e74206f766572666c6f770000000000600082015250565b7f4552433732313a207472616e7366657220746f206e6f6e20455243373231526560008201527f63656976657220696d706c656d656e7465720000000000000000000000000000602082015250565b7f4552433732313a207472616e736665722066726f6d20696e636f72726563742060008201527f6f776e6572000000000000000000000000000000000000000000000000000000602082015250565b7f4552433732313a20746f6b656e20616c7265616479206d696e74656400000000600082015250565b7f4552433732313a207472616e7366657220746f20746865207a65726f2061646460008201527f7265737300000000000000000000000000000000000000000000000000000000602082015250565b7f4552433732313a20617070726f766520746f2063616c6c657200000000000000600082015250565b7f6f6e6c79206f776e6572206f6620746865204d61726b657470706c616365206360008201527f616e206368616e676520746865206c697374696e672070726963650000000000602082015250565b7f4552433732313a2061646472657373207a65726f206973206e6f74206120766160008201527f6c6964206f776e65720000000000000000000000000000000000000000000000602082015250565b7f45524337323155524953746f726167653a2055524920736574206f66206e6f6e60008201527f6578697374656e7420746f6b656e000000000000000000000000000000000000602082015250565b7f7072696365206d75737420626520657175616c20746f206c697374696e67207060008201527f7269636500000000000000000000000000000000000000000000000000000000602082015250565b7f506c65617365207375626d6974207468652061736b696e67207072696365206960008201527f6e206f7264657220746f20636f6d706c65746520746865207075726368617365602082015250565b7f4552433732313a206d696e7420746f20746865207a65726f2061646472657373600082015250565b7f5072696365206d757374206265206174206c6561737420310000000000000000600082015250565b7f4552433732313a20696e76616c696420746f6b656e2049440000000000000000600082015250565b7f4552433732313a20617070726f76616c20746f2063757272656e74206f776e6560008201527f7200000000000000000000000000000000000000000000000000000000000000602082015250565b7f5072696365206d75737420626520657175616c20746f206c697374696e67207060008201527f7269636500000000000000000000000000000000000000000000000000000000602082015250565b7f4552433732313a20617070726f76652063616c6c6572206973206e6f7420746f60008201527f6b656e206f776e6572206f7220617070726f76656420666f7220616c6c000000602082015250565b7f4f6e6c79206974656d2773206f776e65722063616e20706572666f726d20746860008201527f6973206f7065726174696f6e0000000000000000000000000000000000000000602082015250565b6142ac81613b98565b81146142b757600080fd5b50565b6142c381613bbc565b81146142ce57600080fd5b50565b6142da81613bc8565b81146142e557600080fd5b50565b6142f181613c14565b81146142fc57600080fd5b5056fea264697066735822122048a3fa63b55cad8ab3c46cd2c5cb2b181730c788e81de98e9e4d67b067340dc164736f6c63430008040033",
  "linkReferences": {},
  "deployedLinkReferences": {}
}